{
  "_format": "hh-sol-artifact-1",
  "contractName": "Charity",
  "sourceName": "contracts/Charity.sol",
  "abi": [
    {
      "inputs": [],
      "stateMutability": "nonpayable",
      "type": "constructor"
    },
    {
      "anonymous": false,
      "inputs": [
        {
          "indexed": false,
          "internalType": "uint256",
          "name": "oldId",
          "type": "uint256"
        },
        {
          "indexed": false,
          "internalType": "address",
          "name": "person",
          "type": "address"
        }
      ],
      "name": "CauseCancelled",
      "type": "event"
    },
    {
      "anonymous": false,
      "inputs": [
        {
          "indexed": false,
          "internalType": "uint256",
          "name": "oldId",
          "type": "uint256"
        },
        {
          "indexed": false,
          "internalType": "address",
          "name": "person",
          "type": "address"
        },
        {
          "indexed": false,
          "internalType": "uint256",
          "name": "goal",
          "type": "uint256"
        }
      ],
      "name": "CauseListed",
      "type": "event"
    },
    {
      "anonymous": false,
      "inputs": [
        {
          "indexed": false,
          "internalType": "uint256",
          "name": "oldDonorCount",
          "type": "uint256"
        },
        {
          "indexed": false,
          "internalType": "address",
          "name": "donor",
          "type": "address"
        },
        {
          "indexed": false,
          "internalType": "uint256",
          "name": "amount",
          "type": "uint256"
        }
      ],
      "name": "Donated",
      "type": "event"
    },
    {
      "anonymous": false,
      "inputs": [
        {
          "indexed": false,
          "internalType": "uint256",
          "name": "oldDonorCount",
          "type": "uint256"
        },
        {
          "indexed": false,
          "internalType": "address",
          "name": "donor",
          "type": "address"
        }
      ],
      "name": "DonorCancelled",
      "type": "event"
    },
    {
      "anonymous": false,
      "inputs": [
        {
          "indexed": false,
          "internalType": "uint256",
          "name": "oldId",
          "type": "uint256"
        },
        {
          "indexed": false,
          "internalType": "address",
          "name": "person",
          "type": "address"
        },
        {
          "indexed": false,
          "internalType": "uint256",
          "name": "goal",
          "type": "uint256"
        }
      ],
      "name": "GoalHit",
      "type": "event"
    },
    {
      "anonymous": false,
      "inputs": [
        {
          "indexed": false,
          "internalType": "uint256",
          "name": "oldId",
          "type": "uint256"
        },
        {
          "indexed": false,
          "internalType": "address",
          "name": "person",
          "type": "address"
        },
        {
          "indexed": false,
          "internalType": "uint256",
          "name": "proceeds",
          "type": "uint256"
        }
      ],
      "name": "ProceedsWithdrawn",
      "type": "event"
    },
    {
      "inputs": [
        {
          "internalType": "uint256",
          "name": "oldId",
          "type": "uint256"
        }
      ],
      "name": "CancelListing",
      "outputs": [],
      "stateMutability": "nonpayable",
      "type": "function"
    },
    {
      "inputs": [
        {
          "internalType": "uint256",
          "name": "oldId",
          "type": "uint256"
        },
        {
          "internalType": "address",
          "name": "person",
          "type": "address"
        }
      ],
      "name": "Donate",
      "outputs": [],
      "stateMutability": "payable",
      "type": "function"
    },
    {
      "inputs": [
        {
          "internalType": "uint256",
          "name": "oldDonorCount",
          "type": "uint256"
        }
      ],
      "name": "DonorCancel",
      "outputs": [],
      "stateMutability": "nonpayable",
      "type": "function"
    },
    {
      "inputs": [
        {
          "internalType": "uint256",
          "name": "oldId",
          "type": "uint256"
        },
        {
          "internalType": "uint256",
          "name": "newGoal",
          "type": "uint256"
        }
      ],
      "name": "UpdateCause",
      "outputs": [],
      "stateMutability": "nonpayable",
      "type": "function"
    },
    {
      "inputs": [
        {
          "internalType": "uint256",
          "name": "oldId",
          "type": "uint256"
        }
      ],
      "name": "WithdrawProceeds",
      "outputs": [],
      "stateMutability": "nonpayable",
      "type": "function"
    },
    {
      "inputs": [
        {
          "internalType": "uint256",
          "name": "oldId",
          "type": "uint256"
        }
      ],
      "name": "getListing",
      "outputs": [
        {
          "components": [
            {
              "internalType": "uint256",
              "name": "oldId",
              "type": "uint256"
            },
            {
              "internalType": "address",
              "name": "person",
              "type": "address"
            },
            {
              "internalType": "uint256",
              "name": "goal",
              "type": "uint256"
            }
          ],
          "internalType": "struct Charity.Cause",
          "name": "",
          "type": "tuple"
        }
      ],
      "stateMutability": "view",
      "type": "function"
    },
    {
      "inputs": [],
      "name": "getProceeds",
      "outputs": [
        {
          "internalType": "uint256",
          "name": "",
          "type": "uint256"
        }
      ],
      "stateMutability": "view",
      "type": "function"
    },
    {
      "inputs": [
        {
          "internalType": "uint256",
          "name": "goal",
          "type": "uint256"
        }
      ],
      "name": "listCause",
      "outputs": [],
      "stateMutability": "nonpayable",
      "type": "function"
    }
  ],
  "bytecode": "0x608060405234801561001057600080fd5b50600080819055506000600181905550611c4c8061002f6000396000f3fe60806040526004361061007b5760003560e01c8063a5a500191161004e578063a5a500191461013a578063c565a5e514610163578063da4518951461018c578063dca2f6d5146101a85761007b565b806307da7ffa14610080578063107a274a146100a957806383bd9587146100e65780638b991cab14610111575b600080fd5b34801561008c57600080fd5b506100a760048036038101906100a291906116a6565b6101d1565b005b3480156100b557600080fd5b506100d060048036038101906100cb9190611639565b6104c4565b6040516100dd919061192e565b60405180910390f35b3480156100f257600080fd5b506100fb610598565b6040516101089190611949565b60405180910390f35b34801561011d57600080fd5b5061013860048036038101906101339190611639565b6105df565b005b34801561014657600080fd5b50610161600480360381019061015c9190611639565b6109b2565b005b34801561016f57600080fd5b5061018a60048036038101906101859190611639565b610cd4565b005b6101a660048036038101906101a19190611666565b610f26565b005b3480156101b457600080fd5b506101cf60048036038101906101ca9190611639565b611388565b005b81336000600360008373ffffffffffffffffffffffffffffffffffffffff1673ffffffffffffffffffffffffffffffffffffffff1681526020019081526020016000206000848152602001908152602001600020604051806060016040529081600082015481526020016001820160009054906101000a900473ffffffffffffffffffffffffffffffffffffffff1673ffffffffffffffffffffffffffffffffffffffff1673ffffffffffffffffffffffffffffffffffffffff16815260200160028201548152505090506000816040015111156102e4576040517f08c379a00000000000000000000000000000000000000000000000000000000081526004016102db906118ee565b60405180910390fd5b84336000600360008373ffffffffffffffffffffffffffffffffffffffff1673ffffffffffffffffffffffffffffffffffffffff1681526020019081526020016000206000848152602001908152602001600020604051806060016040529081600082015481526020016001820160009054906101000a900473ffffffffffffffffffffffffffffffffffffffff1673ffffffffffffffffffffffffffffffffffffffff1673ffffffffffffffffffffffffffffffffffffffff16815260200160028201548152505090506000816020015190508073ffffffffffffffffffffffffffffffffffffffff163373ffffffffffffffffffffffffffffffffffffffff1614610426576040517f08c379a000000000000000000000000000000000000000000000000000000000815260040161041d906118ae565b60405180910390fd5b87600360003373ffffffffffffffffffffffffffffffffffffffff1673ffffffffffffffffffffffffffffffffffffffff16815260200190815260200160002060008b8152602001908152602001600020600201819055507f16859a6953e657712186a07351e47dc3917508b2472967b86e5a3b277370d1ec89338a6040516104b19392919061198d565b60405180910390a1505050505050505050565b6104cc6115d8565b600360003373ffffffffffffffffffffffffffffffffffffffff1673ffffffffffffffffffffffffffffffffffffffff1681526020019081526020016000206000838152602001908152602001600020604051806060016040529081600082015481526020016001820160009054906101000a900473ffffffffffffffffffffffffffffffffffffffff1673ffffffffffffffffffffffffffffffffffffffff1673ffffffffffffffffffffffffffffffffffffffff1681526020016002820154815250509050919050565b6000600460003373ffffffffffffffffffffffffffffffffffffffff1673ffffffffffffffffffffffffffffffffffffffff16815260200190815260200160002054905090565b80336000600360008373ffffffffffffffffffffffffffffffffffffffff1673ffffffffffffffffffffffffffffffffffffffff1681526020019081526020016000206000848152602001908152602001600020604051806060016040529081600082015481526020016001820160009054906101000a900473ffffffffffffffffffffffffffffffffffffffff1673ffffffffffffffffffffffffffffffffffffffff1673ffffffffffffffffffffffffffffffffffffffff16815260200160028201548152505090506000816040015111156106f2576040517f08c379a00000000000000000000000000000000000000000000000000000000081526004016106e9906118ee565b60405180910390fd5b83336000600360008373ffffffffffffffffffffffffffffffffffffffff1673ffffffffffffffffffffffffffffffffffffffff1681526020019081526020016000206000848152602001908152602001600020604051806060016040529081600082015481526020016001820160009054906101000a900473ffffffffffffffffffffffffffffffffffffffff1673ffffffffffffffffffffffffffffffffffffffff1673ffffffffffffffffffffffffffffffffffffffff16815260200160028201548152505090506000816020015190508073ffffffffffffffffffffffffffffffffffffffff163373ffffffffffffffffffffffffffffffffffffffff1614610834576040517f08c379a000000000000000000000000000000000000000000000000000000000815260040161082b906118ae565b60405180910390fd5b6000600460003373ffffffffffffffffffffffffffffffffffffffff1673ffffffffffffffffffffffffffffffffffffffff168152602001908152602001600020549050600081116108bb576040517f08c379a00000000000000000000000000000000000000000000000000000000081526004016108b29061190e565b60405180910390fd5b6000905060003373ffffffffffffffffffffffffffffffffffffffff16826040516108e590611859565b60006040518083038185875af1925050503d8060008114610922576040519150601f19603f3d011682016040523d82523d6000602084013e610927565b606091505b505090508061096b576040517f08c379a00000000000000000000000000000000000000000000000000000000081526004016109629061186e565b60405180910390fd5b7f579e0e2d0cfdb23711bb6034ac9f2ba41e8965a8e24589d1c3cf5604868661fc8a338460405161099e9392919061198d565b60405180910390a150505050505050505050565b80336000600360008373ffffffffffffffffffffffffffffffffffffffff1673ffffffffffffffffffffffffffffffffffffffff1681526020019081526020016000206000848152602001908152602001600020604051806060016040529081600082015481526020016001820160009054906101000a900473ffffffffffffffffffffffffffffffffffffffff1673ffffffffffffffffffffffffffffffffffffffff1673ffffffffffffffffffffffffffffffffffffffff1681526020016002820154815250509050600081604001511115610ac5576040517f08c379a0000000000000000000000000000000000000000000000000000000008152600401610abc906118ee565b60405180910390fd5b83336000600360008373ffffffffffffffffffffffffffffffffffffffff1673ffffffffffffffffffffffffffffffffffffffff1681526020019081526020016000206000848152602001908152602001600020604051806060016040529081600082015481526020016001820160009054906101000a900473ffffffffffffffffffffffffffffffffffffffff1673ffffffffffffffffffffffffffffffffffffffff1673ffffffffffffffffffffffffffffffffffffffff16815260200160028201548152505090506000816020015190508073ffffffffffffffffffffffffffffffffffffffff163373ffffffffffffffffffffffffffffffffffffffff1614610c07576040517f08c379a0000000000000000000000000000000000000000000000000000000008152600401610bfe906118ae565b60405180910390fd5b600360003373ffffffffffffffffffffffffffffffffffffffff1673ffffffffffffffffffffffffffffffffffffffff16815260200190815260200160002060008981526020019081526020016000206000808201600090556001820160006101000a81549073ffffffffffffffffffffffffffffffffffffffff0219169055600282016000905550507f586368808c5ebbb757f6ee60a1b16205dfa7b117dd10852e044986a4da4ae1c58833604051610cc2929190611964565b60405180910390a15050505050505050565b80336000600260008373ffffffffffffffffffffffffffffffffffffffff1673ffffffffffffffffffffffffffffffffffffffff1681526020019081526020016000206000848152602001908152602001600020604051806060016040529081600082015481526020016001820160009054906101000a900473ffffffffffffffffffffffffffffffffffffffff1673ffffffffffffffffffffffffffffffffffffffff1673ffffffffffffffffffffffffffffffffffffffff16815260200160028201548152505090506000816040015111610de6576040517f08c379a0000000000000000000000000000000000000000000000000000000008152600401610ddd9061188e565b60405180910390fd5b6000600560003373ffffffffffffffffffffffffffffffffffffffff1673ffffffffffffffffffffffffffffffffffffffff16815260200190815260200160002081905550600033905060008173ffffffffffffffffffffffffffffffffffffffff16600560003373ffffffffffffffffffffffffffffffffffffffff1673ffffffffffffffffffffffffffffffffffffffff16815260200190815260200160002054604051610e9590611859565b60006040518083038185875af1925050503d8060008114610ed2576040519150601f19603f3d011682016040523d82523d6000602084013e610ed7565b606091505b5050905080610ee557600080fd5b7f7c9014096fa24393ce06d23d8fb47f423e2d1fd1035e9e91ff4ac69f3224a1ad8633604051610f16929190611964565b60405180910390a1505050505050565b81816000600360008373ffffffffffffffffffffffffffffffffffffffff1673ffffffffffffffffffffffffffffffffffffffff1681526020019081526020016000206000848152602001908152602001600020604051806060016040529081600082015481526020016001820160009054906101000a900473ffffffffffffffffffffffffffffffffffffffff1673ffffffffffffffffffffffffffffffffffffffff1673ffffffffffffffffffffffffffffffffffffffff1681526020016002820154815250509050600081604001511115611039576040517f08c379a0000000000000000000000000000000000000000000000000000000008152600401611030906118ee565b60405180910390fd5b60003490506000600360008773ffffffffffffffffffffffffffffffffffffffff1673ffffffffffffffffffffffffffffffffffffffff1681526020019081526020016000206000888152602001908152602001600020604051806060016040529081600082015481526020016001820160009054906101000a900473ffffffffffffffffffffffffffffffffffffffff1673ffffffffffffffffffffffffffffffffffffffff1673ffffffffffffffffffffffffffffffffffffffff1681526020016002820154815250509050600081604001519050604051806060016040528060015481526020013373ffffffffffffffffffffffffffffffffffffffff16815260200184815250600260003373ffffffffffffffffffffffffffffffffffffffff1673ffffffffffffffffffffffffffffffffffffffff168152602001908152602001600020600060015481526020019081526020016000206000820151816000015560208201518160010160006101000a81548173ffffffffffffffffffffffffffffffffffffffff021916908373ffffffffffffffffffffffffffffffffffffffff160217905550604082015181600201559050507f1b606d34afacd55873aba0fd274841a10c63e18455f2dffebad2fc60a36b2c8360015433856040516112289392919061198d565b60405180910390a18260046000846020015173ffffffffffffffffffffffffffffffffffffffff1673ffffffffffffffffffffffffffffffffffffffff168152602001908152602001600020600082825461128391906119e0565b9250508190555034600560003373ffffffffffffffffffffffffffffffffffffffff1673ffffffffffffffffffffffffffffffffffffffff16815260200190815260200160002060008282546112d991906119e0565b925050819055508060046000846020015173ffffffffffffffffffffffffffffffffffffffff1673ffffffffffffffffffffffffffffffffffffffff1681526020019081526020016000205410611366577fc9a121c2313dd9982b77b32c2e8828be163d8c24caa7fffa5eb739ab804ec47288888360405161135d9392919061198d565b60405180910390a15b6001600081548092919061137990611a72565b91905055505050505050505050565b600054336000600360008373ffffffffffffffffffffffffffffffffffffffff1673ffffffffffffffffffffffffffffffffffffffff1681526020019081526020016000206000848152602001908152602001600020604051806060016040529081600082015481526020016001820160009054906101000a900473ffffffffffffffffffffffffffffffffffffffff1673ffffffffffffffffffffffffffffffffffffffff1673ffffffffffffffffffffffffffffffffffffffff1681526020016002820154815250509050600081604001511161149c576040517f08c379a0000000000000000000000000000000000000000000000000000000008152600401611493906118ce565b60405180910390fd5b604051806060016040528060005481526020013373ffffffffffffffffffffffffffffffffffffffff16815260200185815250600360003373ffffffffffffffffffffffffffffffffffffffff1673ffffffffffffffffffffffffffffffffffffffff1681526020019081526020016000206000805481526020019081526020016000206000820151816000015560208201518160010160006101000a81548173ffffffffffffffffffffffffffffffffffffffff021916908373ffffffffffffffffffffffffffffffffffffffff160217905550604082015181600201559050507f16859a6953e657712186a07351e47dc3917508b2472967b86e5a3b277370d1ec60005433866040516115b39392919061198d565b60405180910390a16000808154809291906115cd90611a72565b919050555050505050565b604051806060016040528060008152602001600073ffffffffffffffffffffffffffffffffffffffff168152602001600081525090565b60008135905061161e81611be8565b92915050565b60008135905061163381611bff565b92915050565b60006020828403121561164f5761164e611aea565b5b600061165d84828501611624565b91505092915050565b6000806040838503121561167d5761167c611aea565b5b600061168b85828601611624565b925050602061169c8582860161160f565b9150509250929050565b600080604083850312156116bd576116bc611aea565b5b60006116cb85828601611624565b92505060206116dc85828601611624565b9150509250929050565b6116ef81611a36565b82525050565b6116fe81611a36565b82525050565b6000611711600f836119cf565b915061171c82611aef565b602082019050919050565b60006117346018836119cf565b915061173f82611b18565b602082019050919050565b60006117576009836119cf565b915061176282611b41565b602082019050919050565b600061177a600e836119cf565b915061178582611b6a565b602082019050919050565b600061179d600a836119cf565b91506117a882611b93565b602082019050919050565b60006117c0600b836119cf565b91506117cb82611bbc565b602082019050919050565b60006117e36000836119c4565b91506117ee82611be5565b600082019050919050565b60608201600082015161180f600085018261183b565b50602082015161182260208501826116e6565b506040820151611835604085018261183b565b50505050565b61184481611a68565b82525050565b61185381611a68565b82525050565b6000611864826117d6565b9150819050919050565b6000602082019050818103600083015261188781611704565b9050919050565b600060208201905081810360008301526118a781611727565b9050919050565b600060208201905081810360008301526118c78161174a565b9050919050565b600060208201905081810360008301526118e78161176d565b9050919050565b6000602082019050818103600083015261190781611790565b9050919050565b60006020820190508181036000830152611927816117b3565b9050919050565b600060608201905061194360008301846117f9565b92915050565b600060208201905061195e600083018461184a565b92915050565b6000604082019050611979600083018561184a565b61198660208301846116f5565b9392505050565b60006060820190506119a2600083018661184a565b6119af60208301856116f5565b6119bc604083018461184a565b949350505050565b600081905092915050565b600082825260208201905092915050565b60006119eb82611a68565b91506119f683611a68565b9250827fffffffffffffffffffffffffffffffffffffffffffffffffffffffffffffffff03821115611a2b57611a2a611abb565b5b828201905092915050565b6000611a4182611a48565b9050919050565b600073ffffffffffffffffffffffffffffffffffffffff82169050919050565b6000819050919050565b6000611a7d82611a68565b91507fffffffffffffffffffffffffffffffffffffffffffffffffffffffffffffffff821415611ab057611aaf611abb565b5b600182019050919050565b7f4e487b7100000000000000000000000000000000000000000000000000000000600052601160045260246000fd5b600080fd5b7f5472616e73666572206661696c65640000000000000000000000000000000000600082015250565b7f486173204e6f7420446f6e6174656420746f2043617573650000000000000000600082015250565b7f4e6f74204f776e65720000000000000000000000000000000000000000000000600082015250565b7f416c7265616479204c6973746564000000000000000000000000000000000000600082015250565b7f4e6f74204c697374656400000000000000000000000000000000000000000000600082015250565b7f4e6f2070726f6365656473000000000000000000000000000000000000000000600082015250565b50565b611bf181611a36565b8114611bfc57600080fd5b50565b611c0881611a68565b8114611c1357600080fd5b5056fea2646970667358221220f141ea6a95e591cd7524de25fec372b4c7fbeefe2ba7e1bfa0cc3702b1a7d7b164736f6c63430008070033",
  "linkReferences": {},
  "deployedLinkReferences": {}
}